{
  "contractName": "Main",
  "abi": [
    {
      "anonymous": false,
      "inputs": [
        {
          "indexed": false,
          "internalType": "uint256",
          "name": "id",
          "type": "uint256"
        },
        {
          "indexed": false,
          "internalType": "string",
          "name": "model",
          "type": "string"
        },
        {
          "indexed": false,
          "internalType": "uint256",
          "name": "horsePower",
          "type": "uint256"
        }
      ],
      "name": "NewCar",
      "type": "event"
    },
    {
      "anonymous": false,
      "inputs": [
        {
          "indexed": false,
          "internalType": "string",
          "name": "info_message",
          "type": "string"
        }
      ],
      "name": "NewInfoInContract",
      "type": "event"
    },
    {
      "anonymous": false,
      "inputs": [],
      "name": "SuccessTransactionMessage",
      "type": "event"
    },
    {
      "inputs": [
        {
          "internalType": "uint256",
          "name": "",
          "type": "uint256"
        }
      ],
      "name": "cars",
      "outputs": [
        {
          "internalType": "string",
          "name": "model",
          "type": "string"
        },
        {
          "internalType": "uint256",
          "name": "horsePower",
          "type": "uint256"
        }
      ],
      "stateMutability": "view",
      "type": "function",
      "constant": true
    },
    {
      "inputs": [],
      "name": "start_info_message",
      "outputs": [
        {
          "internalType": "string",
          "name": "",
          "type": "string"
        }
      ],
      "stateMutability": "view",
      "type": "function",
      "constant": true
    },
    {
      "inputs": [],
      "name": "version",
      "outputs": [
        {
          "internalType": "string",
          "name": "",
          "type": "string"
        }
      ],
      "stateMutability": "view",
      "type": "function",
      "constant": true
    },
    {
      "inputs": [
        {
          "internalType": "string",
          "name": "_start_info_message",
          "type": "string"
        }
      ],
      "name": "setStartingMessage",
      "outputs": [],
      "stateMutability": "nonpayable",
      "type": "function"
    },
    {
      "inputs": [],
      "name": "getStartingMessage",
      "outputs": [
        {
          "internalType": "string",
          "name": "",
          "type": "string"
        }
      ],
      "stateMutability": "view",
      "type": "function",
      "constant": true
    },
    {
      "inputs": [],
      "name": "getContractVersion",
      "outputs": [
        {
          "internalType": "string",
          "name": "",
          "type": "string"
        }
      ],
      "stateMutability": "view",
      "type": "function",
      "constant": true
    },
    {
      "inputs": [
        {
          "internalType": "string",
          "name": "_model",
          "type": "string"
        },
        {
          "internalType": "uint256",
          "name": "_horsePower",
          "type": "uint256"
        }
      ],
      "name": "createCar",
      "outputs": [],
      "stateMutability": "nonpayable",
      "type": "function"
    },
    {
      "inputs": [
        {
          "internalType": "address",
          "name": "_owner",
          "type": "address"
        }
      ],
      "name": "getCarsByOwner",
      "outputs": [
        {
          "internalType": "uint256[]",
          "name": "",
          "type": "uint256[]"
        }
      ],
      "stateMutability": "view",
      "type": "function",
      "constant": true
    },
    {
      "inputs": [
        {
          "internalType": "address",
          "name": "_owner",
          "type": "address"
        }
      ],
      "name": "getOnwerCarsLength",
      "outputs": [
        {
          "internalType": "uint256",
          "name": "",
          "type": "uint256"
        }
      ],
      "stateMutability": "view",
      "type": "function",
      "constant": true
    }
  ],
  "bytecode": "0x60806040526040518060400160405280600c81526020017f48656c6c6f20776f726c642100000000000000000000000000000000000000008152506000908051906020019062000051929190620000b4565b506040518060400160405280600581526020017f312e302e34000000000000000000000000000000000000000000000000000000815250600190805190602001906200009f929190620000b4565b50348015620000ad57600080fd5b50620001c9565b828054620000c29062000193565b90600052602060002090601f016020900481019282620000e6576000855562000132565b82601f106200010157805160ff191683800117855562000132565b8280016001018555821562000132579182015b828111156200013157825182559160200191906001019062000114565b5b50905062000141919062000145565b5090565b5b808211156200016057600081600090555060010162000146565b5090565b7f4e487b7100000000000000000000000000000000000000000000000000000000600052602260045260246000fd5b60006002820490506001821680620001ac57607f821691505b60208210811415620001c357620001c262000164565b5b50919050565b610f7880620001d96000396000f3fe608060405234801561001057600080fd5b50600436106100935760003560e01c806392ce42dd1161006657806392ce42dd146101105780639a8c4ff614610140578063c75bb4f41461015c578063ecadf8b81461018c578063f7746e36146101a857610093565b8063457e73c41461009857806354fd4d50146100b65780637f7a68bb146100d45780638aa10435146100f2575b600080fd5b6100a06101d9565b6040516100ad9190610990565b60405180910390f35b6100be610267565b6040516100cb9190610990565b60405180910390f35b6100dc6102f5565b6040516100e99190610990565b60405180910390f35b6100fa610387565b6040516101079190610990565b60405180910390f35b61012a60048036038101906101259190610a24565b610419565b6040516101379190610a6a565b60405180910390f35b61015a60048036038101906101559190610bba565b610462565b005b61017660048036038101906101719190610a24565b6104df565b6040516101839190610cc1565b60405180910390f35b6101a660048036038101906101a19190610d0f565b610632565b005b6101c260048036038101906101bd9190610d6b565b610798565b6040516101d0929190610d98565b60405180910390f35b600080546101e690610df7565b80601f016020809104026020016040519081016040528092919081815260200182805461021290610df7565b801561025f5780601f106102345761010080835404028352916020019161025f565b820191906000526020600020905b81548152906001019060200180831161024257829003601f168201915b505050505081565b6001805461027490610df7565b80601f01602080910402602001604051908101604052809291908181526020018280546102a090610df7565b80156102ed5780601f106102c2576101008083540402835291602001916102ed565b820191906000526020600020905b8154815290600101906020018083116102d057829003601f168201915b505050505081565b60606000805461030490610df7565b80601f016020809104026020016040519081016040528092919081815260200182805461033090610df7565b801561037d5780601f106103525761010080835404028352916020019161037d565b820191906000526020600020905b81548152906001019060200180831161036057829003601f168201915b5050505050905090565b60606001805461039690610df7565b80601f01602080910402602001604051908101604052809291908181526020018280546103c290610df7565b801561040f5780601f106103e45761010080835404028352916020019161040f565b820191906000526020600020905b8154815290600101906020018083116103f257829003601f168201915b5050505050905090565b6000600460008373ffffffffffffffffffffffffffffffffffffffff1673ffffffffffffffffffffffffffffffffffffffff168152602001908152602001600020549050919050565b7f4e89ed73906f0d87cb45c9af111bc566eb1e9d22853e7490de9dfcb10c92f023816040516104919190610990565b60405180910390a17f8842502e63b99a01284b742e97f1b4522d82dc0ca0777962713d9135b037ea8260405160405180910390a180600090805190602001906104db929190610854565b5050565b60606000600460008473ffffffffffffffffffffffffffffffffffffffff1673ffffffffffffffffffffffffffffffffffffffff1681526020019081526020016000205467ffffffffffffffff81111561053c5761053b610a8f565b5b60405190808252806020026020018201604052801561056a5781602001602082028036833780820191505090505b5090506000805b600280549050811015610627578473ffffffffffffffffffffffffffffffffffffffff166003600083815260200190815260200160002060009054906101000a900473ffffffffffffffffffffffffffffffffffffffff1673ffffffffffffffffffffffffffffffffffffffff16141561061457808383815181106105f9576105f8610e29565b5b602002602001018181525050818061061090610e87565b9250505b808061061f90610e87565b915050610571565b508192505050919050565b60026040518060400160405280848152602001838152509080600181540180825580915050600190039060005260206000209060020201600090919091909150600082015181600001908051906020019061068e929190610854565b50602082015181600101555050600060016002805490506106af9190610ed0565b9050336003600083815260200190815260200160002060006101000a81548173ffffffffffffffffffffffffffffffffffffffff021916908373ffffffffffffffffffffffffffffffffffffffff160217905550600460003373ffffffffffffffffffffffffffffffffffffffff1673ffffffffffffffffffffffffffffffffffffffff168152602001908152602001600020600081548092919061075390610e87565b91905055507fe45dd78e7f7aee464bf42135040d40b2a339631f8a4fb7e8fb1e1d576e8181b181848460405161078b93929190610f04565b60405180910390a1505050565b600281815481106107a857600080fd5b90600052602060002090600202016000915090508060000180546107cb90610df7565b80601f01602080910402602001604051908101604052809291908181526020018280546107f790610df7565b80156108445780601f1061081957610100808354040283529160200191610844565b820191906000526020600020905b81548152906001019060200180831161082757829003601f168201915b5050505050908060010154905082565b82805461086090610df7565b90600052602060002090601f01602090048101928261088257600085556108c9565b82601f1061089b57805160ff19168380011785556108c9565b828001600101855582156108c9579182015b828111156108c85782518255916020019190600101906108ad565b5b5090506108d691906108da565b5090565b5b808211156108f35760008160009055506001016108db565b5090565b600081519050919050565b600082825260208201905092915050565b60005b83811015610931578082015181840152602081019050610916565b83811115610940576000848401525b50505050565b6000601f19601f8301169050919050565b6000610962826108f7565b61096c8185610902565b935061097c818560208601610913565b61098581610946565b840191505092915050565b600060208201905081810360008301526109aa8184610957565b905092915050565b6000604051905090565b600080fd5b600080fd5b600073ffffffffffffffffffffffffffffffffffffffff82169050919050565b60006109f1826109c6565b9050919050565b610a01816109e6565b8114610a0c57600080fd5b50565b600081359050610a1e816109f8565b92915050565b600060208284031215610a3a57610a396109bc565b5b6000610a4884828501610a0f565b91505092915050565b6000819050919050565b610a6481610a51565b82525050565b6000602082019050610a7f6000830184610a5b565b92915050565b600080fd5b600080fd5b7f4e487b7100000000000000000000000000000000000000000000000000000000600052604160045260246000fd5b610ac782610946565b810181811067ffffffffffffffff82111715610ae657610ae5610a8f565b5b80604052505050565b6000610af96109b2565b9050610b058282610abe565b919050565b600067ffffffffffffffff821115610b2557610b24610a8f565b5b610b2e82610946565b9050602081019050919050565b82818337600083830152505050565b6000610b5d610b5884610b0a565b610aef565b905082815260208101848484011115610b7957610b78610a8a565b5b610b84848285610b3b565b509392505050565b600082601f830112610ba157610ba0610a85565b5b8135610bb1848260208601610b4a565b91505092915050565b600060208284031215610bd057610bcf6109bc565b5b600082013567ffffffffffffffff811115610bee57610bed6109c1565b5b610bfa84828501610b8c565b91505092915050565b600081519050919050565b600082825260208201905092915050565b6000819050602082019050919050565b610c3881610a51565b82525050565b6000610c4a8383610c2f565b60208301905092915050565b6000602082019050919050565b6000610c6e82610c03565b610c788185610c0e565b9350610c8383610c1f565b8060005b83811015610cb4578151610c9b8882610c3e565b9750610ca683610c56565b925050600181019050610c87565b5085935050505092915050565b60006020820190508181036000830152610cdb8184610c63565b905092915050565b610cec81610a51565b8114610cf757600080fd5b50565b600081359050610d0981610ce3565b92915050565b60008060408385031215610d2657610d256109bc565b5b600083013567ffffffffffffffff811115610d4457610d436109c1565b5b610d5085828601610b8c565b9250506020610d6185828601610cfa565b9150509250929050565b600060208284031215610d8157610d806109bc565b5b6000610d8f84828501610cfa565b91505092915050565b60006040820190508181036000830152610db28185610957565b9050610dc16020830184610a5b565b9392505050565b7f4e487b7100000000000000000000000000000000000000000000000000000000600052602260045260246000fd5b60006002820490506001821680610e0f57607f821691505b60208210811415610e2357610e22610dc8565b5b50919050565b7f4e487b7100000000000000000000000000000000000000000000000000000000600052603260045260246000fd5b7f4e487b7100000000000000000000000000000000000000000000000000000000600052601160045260246000fd5b6000610e9282610a51565b91507fffffffffffffffffffffffffffffffffffffffffffffffffffffffffffffffff821415610ec557610ec4610e58565b5b600182019050919050565b6000610edb82610a51565b9150610ee683610a51565b925082821015610ef957610ef8610e58565b5b828203905092915050565b6000606082019050610f196000830186610a5b565b8181036020830152610f2b8185610957565b9050610f3a6040830184610a5b565b94935050505056fea2646970667358221220ab35d05c2d722525e9e1cc19db4b9b3e1fd5f3683bc70ac6f8d55531a364bc9964736f6c63430008090033",
  "immutableReferences": {},
  "source": "pragma solidity >=0.4.22 <0.9.0;\n\ncontract Main {\n  string public start_info_message = \"Hello world!\";\n  string public version = \"1.0.4\";\n\n  struct Car {\n    string model;\n    uint horsePower;\n  }\n\n  Car[] public cars;\n\n  mapping (uint => address) carToOwner;\n  mapping (address => uint) ownerCarCount;\n\n  event NewCar(uint id, string model, uint horsePower);\n  \n  event NewInfoInContract(string info_message);\n  event SuccessTransactionMessage();\n\n  function setStartingMessage(string memory _start_info_message) public {\n    emit NewInfoInContract(_start_info_message);\n    emit SuccessTransactionMessage();\n    start_info_message = _start_info_message;\n  }\n\n  function getStartingMessage() public view returns (string memory) {\n    return start_info_message;\n  }\n\n  function getContractVersion() public view returns (string memory) {\n    return version;\n  }\n\n  function createCar(string memory _model, uint _horsePower) public {\n    // Two ways to create a car with struct and push him to cars array\n\n    // #1\n    cars.push(Car(_model, _horsePower));\n    uint id = cars.length - 1;\n    carToOwner[id] = msg.sender;\n    ownerCarCount[msg.sender]++;\n    emit NewCar(id, _model, _horsePower);\n  }\n  \n  function getCarsByOwner(address _owner) public view returns (uint[] memory) {\n    uint[] memory result = new uint[](ownerCarCount[_owner]);\n\n    uint counter = 0;\n    for (uint i = 0; i < cars.length; i++) {\n      if (carToOwner[i] == _owner) {\n        result[counter] = i;\n        counter++;\n      }\n    }\n    return result;\n  }\n\n  function getOnwerCarsLength(address _owner) public view returns (uint) {\n    return ownerCarCount[_owner];\n  }\n}",
  "sourcePath": "/Users/nikitamatskovskiy/Desktop/DApp/Fast ETH App/testing-contract/contracts/Main.sol",
  "compiler": {
    "name": "solc",
    "version": "0.8.9+commit.e5eed63a.Emscripten.clang"
  },
  "schemaVersion": "3.4.3",
  "updatedAt": "2021-11-19T14:00:10.967Z",
  "networkType": "ethereum",
  "devdoc": {
    "kind": "dev",
    "methods": {},
    "version": 1
  },
  "userdoc": {
    "kind": "user",
    "methods": {},
    "version": 1
  }
}